:020000020000FC
:1000000005E003BF01E400BF4BC01FB62A9531F4E1
:1000100026E033953D3311F4332743951FBE1895E1
:1000200001E600BF0895C198B99A01E400BF0895A0
:100030008017910761F08017910728F40EB50F5FC4
:1000400030F40EBD04C00EB5015008F00EBD089589
:1000500003E406D0652D762D01E402D0A52DB62D42
:1000600007B95524662410E104ED06B9349BFECF90
:1000700004B1500E05B1601E1A95B1F714E06694F4
:1000800057941A95E1F73798089501E0A537B0071E
:1000900028F002E0A73CB00708F40895C4DFFFCFC2
:1000A00005E60DBF0FEF0DBD02E009BFC198B99A7B
:1000B00026E0EE24789440E030E03EBDB1DFC8DFBA
:1000C000E42EA62EB72ECA2EDB2E06E4C9DF852D20
:1000D000962DBEDFDADF01E0623A7007F8F604E33E
:1000E00010E0A6DF4A35D0F6E41678F7C198CA1AB0
:1000F000DB0A0CE010E0C01AD10A44F4A61AB70AD1
:1001000006E010E0A01AB10A0CF4DACF8CDF00E0B0
:100110000EBD40E030E084DF9BDF07E4A1DF852DEA
:10012000962D05E49DDF8519960912F488279927F5
:10013000ACDF01E0623A700730F40AE110E078DFEA
:08014000EBCF4A3500F4AACF11
:00000001FF
