:020000020000FC
:1000000005E003BF01E400BF4CC01FB62A9531F4E0
:1000100026E033953D3311F4332743951FBE1895E1
:1000200001E600BF0895C198B99A01E400BF0895A0
:100030008017910761F08017910728F40EB50F5FC4
:1000400030F40EBD04C00EB5015008F00EBD089589
:1000500003E407D0652D762D01E403D0A52DB62D40
:10006000089507B95524662410E104ED06B9349BC0
:10007000FECF04B1500E05B1601E1A95B1F714E021
:10008000669457941A95E1F73798089501E0A537DB
:10009000B00728F002E0A73CB00708F40895C3DFDA
:1000A000FFCF05E60DBF0FEF0DBD02E009BFC19800
:1000B000B99A26E0EE24789440E030E03EBDB0DF0F
:1000C000C7DFE42EA62EB72ECA2EDB2EC1DF06E434
:1000D000C8DF852D962DDADF01E0623A7007F8F669
:1000E00004E310E0A5DF4A35D0F6E41678F7CA1A23
:1000F000DB0A0AE010E0C01AD10A44F4A61AB70AD3
:1001000006E010E0A01AB10A0CF4DBCF8CDF00E0AF
:100110000EBD40E030E084DF9BDF07E4A2DF852DE9
:10012000962D05E49EDF8519960912F488279927F4
:10013000ADDF01E0623A700730F40AE110E078DFE9
:08014000EBCF4A3500F4ABCF10
:00000001FF
